:020000040000FA
:060000007CEF11F012007C
:0600080004EF0AF01200F3
:060018000CEF0AF01200DB
:061400007CEF11F0120068
:06140800A6EF0FF0120038
:06141800F9EF0FF01200D5
:06142A0001001623000082
:081430000301000001000000AF
:0814380080D892909380899006
:101440009394F18CF292F288D56AD582D58CF2947D
:10145000F184F28AF28CF28E0001606B616B626B38
:10146000636B1200D9CFE6FFE1CFD9FF020EE12670
:10147000DF6A010EDB6AFD0EDBCFE9FFFE0EDBCF7C
:10148000EAFF030EE926000EEA22EF50F36E010E8A
:10149000DBCFF4FFF350F45C1BE2FD0EDBCFE9FF82
:1014A000FE0EDBCFEAFF040EE926000EEA22E9CFAA
:1014B00000F0EACF01F0010EDB500F010024E96ECD
:1014C000000E0120EA6EEF50DF1A010EDB2AD3D79F
:1014D000FD0EDBCFE9FFFE0EDBCFEAFF040EE926AF
:1014E000000EEA22E9CF01F0EACF02F0FD0EDBCFD9
:1014F000E9FFFE0EDBCFEAFF030EE926000EEA222B
:10150000EF500F010124E96E000E0220EA6EEFCFCA
:1015100000F0DF50005C03E1010E03D002D0000EAA
:1015200000D0006E020EE15C02E2E16AE552E16E7B
:101530000050E552E7CFD9FF1200010EE66EE66AD1
:10154000A40EE66E000EE66E9BEC10F0E552E5523E
:10155000E552E552010EE66E040EE66EA50EE66E4D
:10156000000EE66E9BEC10F0E552E552E552E552B6
:10157000010EE66E050EE66EA60EE66E000EE66E37
:101580009BEC10F0E552E552E552E552020EE66E94
:10159000080EE66EA70EE66E000EE66E9BEC10F0EF
:1015A000E552E552E552E552020EE66E0A0EE66E8F
:1015B000A90EE66E000EE66E9BEC10F0E552E552C9
:1015C000E552E552020EE66E0C0EE66EAB0EE66ECE
:1015D000000EE66E9BEC10F0E552E552E552E55246
:1015E000020EE66E0E0EE66EAD0EE66E000EE66EB6
:1015F0009BEC10F0E552E552E552E552010EE66E25
:101600001C0EE66EAF0EE66E000EE66E9BEC10F062
:10161000E552E552E552E552010EE66EE66EB20E77
:10162000E66E000EE66E9BEC10F0E552E552E552D8
:10163000E552B2C0E6FF88EC10F0E5520001B36B52
:10164000B46B1200960ED66ED58E1200D59E81A078
:1016500003D00001616B03D00001800E616F605107
:10166000040A01E1B3D0070A01E18ED0010A4EE07D
:10167000030A14E0010A01E0BBD0622B0A0E625D8E
:1016800006E3615104E1010E606F626B06D00A0E41
:10169000625D03E2615101E1626BAAD0080E625DF6
:1016A0002DE2800E62C0E7FFE75204E0E8427F0BC4
:1016B000E706FCE10001B06F615162C0E7FFE7524D
:1016C00004E0E8427F0BE706FCE1066E0001B01D76
:1016D000056E6351EA6A640FE96E000EEA22EF506C
:1016E00005140610E66E6351EA6A640FE96E000E97
:1016F000EA22E552E750EF6E622B07D0626B010ED3
:10170000636F615102E1020E606F72D0080E625D7C
:101710002DE2800E62C0E7FFE75204E0E8427F0B53
:10172000E706FCE10001B06F615162C0E7FFE752DC
:1017300004E0E8427F0BE706FCE1066E0001B01D05
:10174000056E6351EA6A640FE96E000EEA22EF50FB
:1017500005140610E66E6351EA6A640FE96E000E26
:10176000EA22E552E750EF6E622B0DD0626B6151B9
:10177000056E066A800E051801E1065003E1030EAE
:10178000606F01D0632B34D0600EE66E000EE66E03
:1017900069DEE552E552010807E1600EE66E000ED3
:1017A000E66E27D8E552E552400EE66EE66AE66A36
:1017B000640EE66E000EE66E3BEC11F0056E050E53
:1017C000E15E05500001636B606B12D0400EE66E67
:1017D000E66AE66A640EE66E000EE66E3BEC11F019
:1017E000056E050EE15E05500001636B606B00D075
:1017F0001200D9CFE6FFE1CFD9FF080EE1260001A4
:10180000B10501E059D1FD0EDBCFE9FFFE0EDBCFC4
:10181000EAFF040EE926000EEA22EF50F00B7008F2
:1018200001E04AD1FD0EDBCFE9FFFE0EDBCFEAFF80
:10183000040EE926000EEA22EF500C0B080A76E0AF
:101840000C0A3AE0080A01E030D1FD0EDBCFE9FFD7
:10185000FE0EDBCFEAFF040EE926000EEA22020E9E
:10186000E926000EEA22020EEFCFDBFF010EE66E44
:10187000FD0EDBCFE9FFFE0EDBCFEAFF040EE9260B
:10188000000EEA22010EE926000EEA22EF50E66E73
:10189000D950020FE66E000EDA20E66EC1EC10F0B1
:1018A000E552E552E552E55289800A0EE66E55ECA6
:1018B00011F0E5528990F9D0010EE66EFD0EDBCFF6
:1018C000E9FFFE0EDBCFEAFF040EE926000EEA2256
:1018D000010EE926000EEA22EF50E66ED950030F02
:1018E000E66E000EDA20E66E9BEC10F0E552E55253
:1018F000E552E552FD0EDBCFE9FFFE0EDBCFEAFF3E
:10190000040EE926000EEA22020EE926000EEA2263
:10191000EFCF00F0030EDB50005C07E189800A0E78
:10192000E66E55EC11F0E5528990BFD0FD0EDBCF8D
:10193000E9FFFE0EDBCFEAFF040EE926000EEA22E5
:10194000020EE926000EEA22EF50070BE76E050EA5
:10195000E7CFDBFFFD0EDBCFE9FFFE0EDBCFEAFFBB
:10196000040EE926000EEA22020EE926000EEA2203
:10197000EF50080BE840E840E8401F0BE76E060E0A
:10198000E7CFDBFF010EE66EFD0EDBCFE9FFFE0EBB
:10199000DBCFEAFF040EE926000EEA22010EE9265B
:1019A000000EEA22EF50E66ED950040FE66E000EEC
:1019B000DA20E66E9BEC10F0E552E552E552E55276
:1019C000FD0EDBCFE9FFFE0EDBCFEAFF040EE926BA
:1019D000000EEA22020EE926000EEA22EF50100B5A
:1019E00047E0060EDB50F36E050EDB5004E0D890A6
:1019F000F336E806FCE1F350006E040EDBCFE6FFA1
:101A0000010EF36E050EDB5004E0D890F336E806C5
:101A1000FCE1F350E81CE552E7140010E76E040EF9
:101A2000E7CFDBFF010EE66EFD0EDBCFE9FFFE0E1A
:101A3000DBCFEAFF040EE926000EEA22010EE926BA
:101A4000000EEA22EF50E66ED950040FE66E000E4B
:101A5000DA20E66EC1EC10F0E552E552E552E552AF
:101A600089800A0EE66E55EC11F0E55289901CD083
:101A7000D950050FE96EDACFEAFF040EDB50EFCF45
:101A8000E7FFE75204E0E8427F0BE706FCE1010BC9
:101A9000006E060EDB50005C07E189800A0EE66EE0
:101AA00055EC11F0E552899000D00001B15102E0EF
:101AB000000E01D0010E74D1B15102E0000E01D030
:101AC000010EFD0EDBCFE9FFFE0EDBCFEAFF040EB9
:101AD000E926000EEA22010EE926000EEA22EF5066
:101AE000E00B01E14DD1A00A01E128D1200A01E17A
:101AF00003D1C00A01E1B4D0600A54E0C00A01E099
:101B00004FD1FD0EDBCFE9FFFE0EDBCFEAFF040E67
:101B1000E926000EEA22EF50A45D01E041D1FD0E5E
:101B2000DBCFE9FFFE0EDBCFEAFF040EE926000E55
:101B3000EA22010EE926000EEA22EF500C0B0C08F7
:101B400030E1FD0EDBCFE9FFFE0EDBCFEAFF040E36
:101B5000E926000EEA22030EE926000EEA22070E0D
:101B6000EFCFDBFF010EE66EFD0EDBCFE9FFFE0ED1
:101B7000DBCFEAFF040EE926000EEA22020EE92678
:101B8000000EEA22EF50E66ED950070FE66E000E07
:101B9000DA20E66EC1EC10F0E552E552E552E5526E
:101BA000CCDCFED0FD0EDBCFE9FFFE0EDBCFEAFF83
:101BB000040EE926000EEA22EF50A55D01E0F0D008
:101BC000FD0EDBCFE9FFFE0EDBCFEAFF040EE926B8
:101BD000000EEA22010EE926000EEA22EF501F0B4A
:101BE0001F0B3DE0FD0EDBCFE9FFFE0EDBCFEAFF72
:101BF000040EE926000EEA22020EE926000EEA2271
:101C0000EF50800B17E0FD0EDBCFE9FFFE0EDBCFC0
:101C1000EAFF040EE926000EEA22020EE926000E73
:101C2000EA22EF507F0BE66E010EE66E69D9E552AF
:101C3000E55215D0FD0EDBCFE9FFFE0EDBCFEAFF4C
:101C4000040EE926000EEA22020EE926000EEA2220
:101C5000EF501F0BE66EE66A53D9E552E552A0D06D
:101C6000FD0EDBCFE9FFFE0EDBCFEAFF040EE92617
:101C7000000EEA22EF50A55D01E092D0FD0EDBCF11
:101C8000E9FFFE0EDBCFEAFF040EE926000EEA2292
:101C9000010EE926000EEA22EF50200B17E0FD0EA0
:101CA000DBCFE9FFFE0EDBCFEAFF040EE926000ED4
:101CB000EA22020EE926000EEA22EF500F0BE66E32
:101CC000010EE66E1DD9E552E55215D0FD0EDBCFB3
:101CD000E9FFFE0EDBCFEAFF040EE926000EEA2242
:101CE000020EE926000EEA22EF500F0BE66EE66ABE
:101CF00007D9E552E55254D0FD0EDBCFE9FFFE0EC9
:101D0000DBCFEAFF040EE926000EEA22EF50A45DC5
:101D100001E046D0FD0EDBCFE9FFFE0EDBCFEAFF90
:101D2000040EE926000EEA22010EE926000EEA2240
:101D3000EF501F0BE66E3ED8E55232D0FD0EDBCFE2
:101D4000E9FFFE0EDBCFEAFF040EE926000EEA22D1
:101D5000EF50A45D01E024D0FD0EDBCFE9FFFE0EC5
:101D6000DBCFEAFF040EE926000EEA22010EE92687
:101D7000000EEA22EF501F0BE66E81D8E55210D01C
:101D8000FD0EDBCFE9FFFE0EDBCFEAFF040EE926F6
:101D9000000EEA22EF5001E003D0010EB16F00D037
:101DA000080EE15C02E2E16AE552E16EE552E7CF3E
:101DB000D9FF1200D9CFE6FFE1CFD9FFFE0EDBA895
:101DC00009D00001A65105E1010EB56F8988898609
:101DD000898409D00001A65106E1B50503E189987F
:101DE00089968994B56BFE0EDBA005D0A751B3137D
:101DF000A851B4130AD0A7C000F0A8C001F0001E7B
:101E0000011E0050B3170150B417FE0EDBA205D01F
:101E1000A951B313AA51B4130AD0A9C000F0AAC0A3
:101E200001F0001E011E0050B3170150B417FE0E42
:101E3000DBA405D0AB51B313AC51B4130AD0ABC083
:101E400000F0ACC001F0001E011E0050B31701509D
:101E5000B417FE0EDBA605D0AD51B313AE51B413CB
:101E60000AD0ADC000F0AEC001F0001E011E00504F
:101E7000B3170150B417E552E7CFD9FF1200D9CFFD
:101E8000E6FFE1CFD9FFFE0EDBA836D0DBA005D000
:101E90000001A65101E1898204D00001A65101E1AF
:101EA0008992FE0EDBA206D0A65103E1B55101E1F5
:101EB000898405D0A65103E1B55101E18994FE0E54
:101EC000DBA406D0A65103E1B55101E1898605D016
:101ED000A65103E1B55101E18996FE0EDBA606D0BD
:101EE000A65103E1B55101E1898805D0A65103E16E
:101EF000B55101E1899800D0E552E7CFD9FF120032
:101F0000D9CFE6FFE1CFD9FF0001A65100081AE2C0
:101F1000FE0EDB500CE0AFA105D08998899689941C
:101F2000898204D089888986898489920BD0AFA15F
:101F300005D0898889868984899204D08998899670
:0C1F400089948982E552E7CFD9FF120096
:041F4C00DACFE4FF05
:101F5000E2CFDAFFE9CFE4FFEACFE4FFF6CFE4FF18
:101F6000F7CFE4FFF5CFE4FFF3CFE4FFF4CFE4FFD6
:101F7000FACFE4FF00EE03F0020EE80403E3EECF35
:101F8000E4FFFBD700EE00F0030EE80403E3EECF1E
:101F9000E4FFFBD7E652F2A203D022EC0BF0F29260
:101FA000F2A403D026EC0BF0F294E55200EE02F01E
:101FB000030EE80403E3E5CFEDFFFBD700EE04F0EA
:101FC000020EE80403E3E5CFEDFFFBD7E5CFFAFF10
:101FD000E5CFF4FFE5CFF3FFE5CFF5FFE5CFF7FF62
:101FE000E5CFF6FFE5CFEAFFE5CFE9FFE5CFDAFF82
:101FF0001100D8CFE4FFE0CFE4FFE46EDACFE4FFD6
:10200000E2CFDAFFE652E552E5CFDAFFE550E5CF61
:10201000E0FFE5CFD8FF10000F0EC16E926A936A01
:102020003FEC10F01CEC0AF0F28CF28EB3C0E6FF2D
:10203000B4C0E6FF55EC10F0E552E5520A0EE66E2C
:10204000E66A04D8E552E552F1D71200D9CFE6FF8F
:10205000E1CFD9FF010EE66E55EC11F0E552FD0E11
:10206000DBCF00F0DB06FE0EDBCF01F001E2DB068A
:0E20700000500110EFE1E552E7CFD9FF12005A
:02207E0093923B
:10208000949E949C8B9CC76AC79C220EC66ECA6A9B
:10209000CA84CB68160EBB6E0C0EBA6E000EE66ECE
:1020A000E66A03D8E552E5521200D9CFE6FFE1CF48
:1020B000D9FFFF0EE76EFD0EDBCF00F0FE0EDBCF8B
:1020C00001F0E7500016016A0050C96EC7A0FED7A4
:1020D000C9CF02F1C9CF02F1FD0EDBCF00F0FE0E39
:1020E000DBCF01F001C000F0016A0050C96EC7A04B
:1020F000FED7C9CF02F1C9CF02F18B8C010EE66E7B
:1021000055EC11F0E5528B9CE552E7CFD9FF120058
:10211000D9CFE6FFE1CFD9FFFE0EDB50006E016A9A
:10212000FF0ED8800056000E01560050BB6EE552DF
:06213000E7CFD9FF120009
:0A213600D9CFE6FFE1CFD9FFE65252
:10214000A66ADF6AFB0EDB50DF5C16E2FC0EDB509A
:10215000DF24A96EA680A6B0FED7FD0EDBCFE9FF77
:10216000FE0EDBCFEAFFA8CFEFFFFD0EDB2AFE0E4F
:1021700001E3DB2ADF2AE6D7E552E552E7CFD9FFB4
:102180001200D9CFE6FFE1CFD9FFE652A66AA684B6
:10219000DF6AFB0EDB50DF5C1AE2FC0EDB50DF2453
:1021A000A96EFD0EDBCFE9FFFE0EDBCFEAFFEF509D
:1021B000A86E550EA76EAA0EA76EA682A6B2FED76F
:1021C000FD0EDB2AFE0E01E3DB2ADF2AE2D7E55211
:0821D000E552E7CFD9FF120030
:0821D8002A0EF66E140EF76EDC
:1021E000000EF86E00010900F550FB6F0900F55074
:1021F000FC6F03E1FB6701D03DD00900F550F66F9D
:102200000900F550F76F0900F550F86F0900090053
:10221000F550E96E0900F550EA6E09000900090061
:10222000F550F96F0900F550FA6F09000900F6CF73
:10223000FDF0F7CFFEF0F8CFFFF0F6C0F6FFF7C0E5
:10224000F7FFF8C0F8FF0001F95302E1FA5307E085
:102250000900F550EE6EF907F8E2FA07F9D7FDC06C
:10226000F6FFFEC0F7FFFFC0F8FF0001FB07000EFE
:06227000FC5BBFD7120069
:0A227600FE0EE3CFE9FFFF0EE3CFF9
:10228000EAFFE9CFF3FFEACFF4FFFB0EE35003E1EF
:10229000FC0EE35009E0FB0EE30602E2FC0EE3064F
:0A22A000FD0EE350EE6EF1D71200C0
:0622AA00FF0EE350086E78
:1022B000EF0E01D0F30EE76EE72E5CEF11F00C0E7F
:1022C000076EE76AE72E62EF11F0072E61EF11F05B
:0822D000082E5AEF11F0120074
:0822D800000EF36E00EE00F0B1
:1022E000080E01D81200EA6002D0EE6AFCD7F35063
:0822F000E9601200EE6AFCD760
:0822F80013EE00F023EE00F0EC
:10230000F86A049CECEC10F08AEC11F00CEC10F084
:04231000FBD71200E5
:022314001200B5
:0123160000C6
:020000040030CA
:0100000025DA
:010001000EF0
:010002003FBE
:010003001EDE
:01000500807A
:010006008178
:010008000FE8
:01000900C036
:01000A000FE6
:01000B00E014
:01000C000FE4
:01000D0040B2
:00000001FF
